:100000000C9434000C9446000C9446000C9446006A
:100010000C948E000C9446000C9446000C94460000
:100020000C9446000C9446000C9446000C94460038
:100030000C9446000C9446000C9446000C94460028
:100040000C9446000C9446000C9446000C94460018
:100050000C9446002D04510475049904BD04E10478
:10006000050529054D05710511241FBECFE5D8E012
:10007000DEBFCDBF20E0A0E6B0E001C01D92A536F6
:10008000B207E1F70E94F4060C941E080C940000DD
:10009000CF93DF93CDB7DEB785E490E02AE8FC018B
:1000A000208384E490E0FC01108289E590E029E55A
:1000B00030E0F90120812068FC01208383E490E096
:1000C0002DE7FC0120838FE590E02FE530E0F9017A
:1000D00020812068FC01208381E08093640000007F
:1000E000DF91CF910895CF93DF9300D01F92CDB7CA
:1000F000DEB789837B836A830E9448008A819B8163
:100100009093610080936000898180936300000078
:100110000F900F900F90DF91CF9108951F920F9243
:1001200000905F000F9211242F933F934F935F93A2
:100130006F937F938F939F93AF93BF93EF93FF93AF
:10014000CF93DF93CDB7DEB78091600090916100CF
:10015000FC0109950000DF91CF91FF91EF91BF91D4
:10016000AF919F918F917F916F915F914F913F914F
:100170002F910F9000925F000F901F901895CF93D2
:10018000DF9300D01F92CDB7DEB789836A834B839C
:100190008A81883008F0D0C08981843008F0CCC0D2
:1001A0008981882F90E081309105E1F182309105BD
:1001B0001CF4892B49F0C0C08230910509F460C05D
:1001C000039709F48BC0B8C08B818130A9F48AE30E
:1001D00090E02AE330E0F9012081622F2A81422F4A
:1001E00050E021E030E002C0220F331F4A95E2F7D1
:1001F000262BFC012083A0C08AE390E02AE330E0B4
:10020000F9012081622F2A81422F50E021E030E065
:1002100002C0220F331F4A95E2F720952623FC01E6
:1002200020838AC08B818130A9F487E390E027E3A3
:1002300030E0F9012081622F2A81422F50E021E035
:1002400030E002C0220F331F4A95E2F7262BFC0153
:10025000208372C087E390E027E330E0F90120813A
:10026000622F2A81422F50E021E030E002C0220FAD
:10027000331F4A95E2F720952623FC0120835CC0BA
:100280008B818130A9F484E390E024E330E0F9012C
:100290002081622F2A81422F50E021E030E002C00D
:1002A000220F331F4A95E2F7262BFC01208344C01E
:1002B00084E390E024E330E0F9012081622F2A8179
:1002C000422F50E021E030E002C0220F331F4A9558
:1002D000E2F720952623FC0120832EC08B818130FC
:1002E000A9F481E390E021E330E0F9012081622F5D
:1002F0002A81422F50E021E030E002C0220F331F5C
:100300004A95E2F7262BFC01208315C081E390E09B
:1003100021E330E0F9012081622F2A81422F50E051
:1003200021E030E002C0220F331F4A95E2F720950A
:100330002623FC012083000000000F900F900F90F7
:10034000DF91CF910895CF93DF9300D01F92CDB767
:10035000DEB789836A834B838A81883008F0D0C0F6
:100360008981843008F0CCC08981882F90E0813069
:100370009105E1F1823091051CF4892B49F0C0C050
:100380008230910509F460C0039709F48BC0B8C0AE
:100390008B818823B1F48BE390E02BE330E0F9010B
:1003A0002081622F2A81422F50E021E030E002C0FC
:1003B000220F331F4A95E2F720952623FC01208364
:1003C0009FC08BE390E02BE330E0F9012081622FA6
:1003D0002A81422F50E021E030E002C0220F331F7B
:1003E0004A95E2F7262BFC0120838AC08B81882363
:1003F000B1F488E390E028E330E0F9012081622F36
:100400002A81422F50E021E030E002C0220F331F4A
:100410004A95E2F720952623FC01208371C088E3EA
:1004200090E028E330E0F9012081622F2A81422FF9
:1004300050E021E030E002C0220F331F4A95E2F77E
:10044000262BFC0120835CC08B818823B1F485E3DB
:1004500090E025E330E0F9012081622F2A81422FCC
:1004600050E021E030E002C0220F331F4A95E2F74E
:1004700020952623FC01208343C085E390E025E3FB
:1004800030E0F9012081622F2A81422F50E021E0E3
:1004900030E002C0220F331F4A95E2F7262BFC0101
:1004A00020832EC08B818823B1F482E390E022E385
:1004B00030E0F9012081622F2A81422F50E021E0B3
:1004C00030E002C0220F331F4A95E2F72095262321
:1004D000FC01208314C082E390E022E330E0F901C4
:1004E0002081622F2A81422F50E021E030E002C0BB
:1004F000220F331F4A95E2F7262BFC0120830000D0
:1005000000000F900F900F90DF91CF910895CF933F
:10051000DF9300D0CDB7DEB789836A838A818830C4
:1005200018F48981843010F080E052C08981882FCE
:1005300090E081309105E1F0823091051CF4892B27
:1005400039F046C08230910519F1039789F140C016
:1005500089E390E0FC018081882F90E02A81222F9E
:1005600030E002C0959587952A95E2F7817030C0FA
:1005700086E390E0FC018081882F90E02A81222F81
:1005800030E002C0959587952A95E2F7817020C0EA
:1005900083E390E0FC018081882F90E02A81222F64
:1005A00030E002C0959587952A95E2F7817010C0DA
:1005B00080E390E0FC018081882F90E02A81222F47
:1005C00030E002C0959587952A95E2F7817000C0CA
:1005D0000F900F90DF91CF910895CF93DF9300D0CC
:1005E000CDB7DEB789836A838981843050F58981EC
:1005F000882F90E08130910591F0823091051CF4B4
:10060000892B39F01EC08230910579F0039799F05B
:1006100018C08AE390E02A81FC01208312C087E39E
:1006200090E02A81FC0120830CC084E390E02A81C1
:10063000FC01208306C081E390E02A81FC01208335
:10064000000000000F900F90DF91CF910895CF939D
:10065000DF9300D0CDB7DEB789836A838981843088
:1006600050F58981882F90E08130910591F082309A
:1006700091051CF4892B39F01EC08230910579F068
:10068000039799F018C08BE390E02A81FC01208346
:1006900012C088E390E02A81FC0120830CC085E32E
:1006A00090E02A81FC01208306C082E390E02A8149
:1006B000FC012083000000000F900F90DF91CF918C
:1006C0000895CF93DF931F92CDB7DEB789838981D9
:1006D000843010F080E026C08981882F90E081303E
:1006E000910589F0823091051CF4892B39F01AC0EC
:1006F0008230910569F0039781F014C089E390E09E
:10070000FC0180810FC086E390E0FC0180810AC07B
:1007100083E390E0FC01808105C080E390E0FC0170
:10072000808100C00F90DF91CF910895CF93DF9328
:1007300000D0CDB7DEB789836A838A81883008F01C
:100740006BC08981843008F067C08981882F90E070
:100750008130910511F1823091051CF4892B41F013
:100760005BC08230910571F1039709F440C054C019
:100770002BE330E08BE390E0FC018081682F8A81DD
:10078000482F50E081E090E002C0880F991F4A9501
:10079000E2F78627F90180833FC028E330E088E351
:1007A00090E0FC018081682F8A81482F50E081E031
:1007B00090E002C0880F991F4A95E2F78627F90159
:1007C00080832AC025E330E085E390E0FC0180814E
:1007D000682F8A81482F50E081E090E002C0880FA6
:1007E000991F4A95E2F78627F901808315C022E315
:1007F00030E082E390E0FC018081682F8A81482FFD
:1008000050E081E090E002C0880F991F4A95E2F71E
:100810008627F901808300C00F900F90DF91CF9160
:100820000895CF93DF931F92CDB7DEB78983898177
:10083000882F90E0092E000CAA0BBB0B40E050E083
:1008400029E030E0841B950B2817390708F46DC1A7
:10085000865D9F4FFC010C94FD0641E061E080E065
:100860000E94A30141E062E080E00E94A30141E018
:1008700063E080E00E94A30141E064E080E00E9428
:10088000A30141E065E080E00E94A30141E066E051
:1008900080E00E94A30140E067E080E00E94A301A5
:1008A00044C140E061E080E00E94A30141E062E0D9
:1008B00080E00E94A30141E063E080E00E94A30188
:1008C00040E064E080E00E94A30140E065E080E059
:1008D0000E94A30140E066E080E00E94A30140E0A6
:1008E00067E080E00E94A30120C141E061E080E078
:1008F0000E94A30141E062E080E00E94A30140E089
:1009000063E080E00E94A30141E064E080E00E9497
:10091000A30141E065E080E00E94A30140E066E0C1
:1009200080E00E94A30141E067E080E00E94A30113
:10093000FCC041E061E080E00E94A30141E062E090
:1009400080E00E94A30141E063E080E00E94A301F7
:1009500041E064E080E00E94A30140E065E080E0C7
:100960000E94A30140E066E080E00E94A30141E014
:1009700067E080E00E94A301D8C040E061E080E031
:100980000E94A30141E062E080E00E94A30141E0F7
:1009900063E080E00E94A30140E064E080E00E9408
:1009A000A30140E065E080E00E94A30141E066E031
:1009B00080E00E94A30141E067E080E00E94A30183
:1009C000B4C041E061E080E00E94A30140E062E049
:1009D00080E00E94A30141E063E080E00E94A30167
:1009E00041E064E080E00E94A30140E065E080E037
:1009F0000E94A30141E066E080E00E94A30141E083
:100A000067E080E00E94A30190C041E061E080E0E7
:100A10000E94A30140E062E080E00E94A30141E067
:100A200063E080E00E94A30141E064E080E00E9476
:100A3000A30141E065E080E00E94A30141E066E09F
:100A400080E00E94A30141E067E080E00E94A301F2
:100A50006CC041E061E080E00E94A30141E062E0FF
:100A600080E00E94A30141E063E080E00E94A301D6
:100A700040E064E080E00E94A30140E065E080E0A7
:100A80000E94A30140E066E080E00E94A30140E0F4
:100A900067E080E00E94A30148C041E061E080E09F
:100AA0000E94A30141E062E080E00E94A30141E0D6
:100AB00063E080E00E94A30141E064E080E00E94E6
:100AC000A30141E065E080E00E94A30141E066E00F
:100AD00080E00E94A30141E067E080E00E94A30162
:100AE00024C041E061E080E00E94A30141E062E0B7
:100AF00080E00E94A30141E063E080E00E94A30146
:100B000040E064E080E00E94A30140E065E080E016
:100B10000E94A30141E066E080E00E94A30141E061
:100B200067E080E00E94A301000000000F90DF91C9
:100B3000CF910895CF93DF93CDB7DEB76D970FB602
:100B4000F894DEBF0FBECDBF8D8F66E082E00E94BD
:100B5000960367E082E00E9496039D8D8DEC989F3E
:100B6000812D11248695869586950E94110480E03A
:100B700090E0A0E7B2E489839A83AB83BC8320E052
:100B800030E04AE753E469817A818B819C810E943D
:100B90008907DC01CB018B8B9C8BAD8BBE8B20E05E
:100BA00030E040E85FE36B897C898D899E890E94F3
:100BB000030788232CF481E090E0988F8F8B3FC04F
:100BC00020E03FEF4FE757E46B897C898D899E8950
:100BD0000E94840718164CF520E030E040E251E412
:100BE00069817A818B819C810E948907DC01CB011C
:100BF000BC01CD010E940807DC01CB01988F8F8BCF
:100C00000FC089E190E09A8F898F898D9A8D019725
:100C1000F1F79A8F898F8F89988D0197988F8F8B95
:100C20008F89988D892B69F714C06B897C898D8990
:100C30009E890E940807DC01CB01988F8F8B8F89DA
:100C4000988D9C8F8B8F8B8D9C8D0197F1F79C8F4E
:100C50008B8F66E082E00E94960367E082E00E944C
:100C600096039D8D8DEC989F812D112486958695F8
:100C70008695880F282F220F220F820F292F281BDD
:100C8000822F0E94110480E090E0A0E7B2E48D83FF
:100C90009E83AF83B88720E030E04AE753E46D815C
:100CA0007E818F8198850E948907DC01CB0189872D
:100CB0009A87AB87BC8720E030E040E85FE3698536
:100CC0007A858B859C850E94030788232CF481E01C
:100CD00090E09E878D873FC020E03FEF4FE757E4CD
:100CE00069857A858B859C850E94840718164CF54A
:100CF00020E030E040E251E46D817E818F81988573
:100D00000E948907DC01CB01BC01CD010E940807CC
:100D1000DC01CB019E878D870FC089E190E0988B25
:100D20008F878F8598890197F1F7988B8F878D85AD
:100D30009E8501979E878D878D859E85892B69F776
:100D400014C069857A858B859C850E940807DC0123
:100D5000CB019E878D878D859E859A8B898B89890E
:100D60009A890197F1F79A8B898B00006D960FB6DF
:100D7000F894DEBF0FBECDBFDF91CF910895CF9322
:100D8000DF93CDB7DEB76FEF80E00E94ED0241E068
:100D900066E082E00E94BF0041E067E082E00E94DE
:100DA000BF0041E066E082E00E94A30140E067E00E
:100DB00082E00E94A3010000DF91CF910895CF93BC
:100DC000DF93CDB7DEB70E94BF060000DF91CF9161
:100DD0000895CF93DF93CDB7DEB78CE30E949A05D9
:100DE0000000DF91CF910895CF93DF93CDB7DEB7A9
:100DF0000E94DF060E94E906FDCFEE0FFF1F05905F
:100E0000F491E02D09940E94370708F481E00895D9
:100E10000E94630788F09F5798F0B92F9927B75120
:100E2000B0F0E1F0660F771F881F991F1AF0BA958E
:100E3000C9F714C0B13091F00E947D07B1E0089568
:100E40000C947D07672F782F8827B85F39F0B93F5A
:100E5000CCF3869577956795B395D9F73EF4909541
:100E60008095709561957F4F8F4F9F4F0895990F93
:100E70000008550FAA0BE0E8FEEF16161706E80764
:100E8000F907C0F012161306E407F50798F0621B85
:100E9000730B840B950B39F40A2661F0232B242B5A
:100EA000252B21F408950A2609F4A140A6958FEF79
:100EB000811D811D089557FD9058440F551F59F00D
:100EC0005F3F71F04795880F97FB991F61F09F3F37
:100ED00079F087950895121613061406551FF2CF60
:100EE0004695F1DF08C0161617061806991FF1CFB0
:100EF00086957105610508940895E894BB276627D7
:100F00007727CB0197F908950E94370708F48FEFF0
:100F100008950E949C070C940D080E94FF0738F06A
:100F20000E94060820F0952311F00C94F6070C940B
:100F3000FC0711240C947E070E945B0770F3959FB9
:100F4000C1F3950F50E0551F629FF001729FBB27C0
:100F5000F00DB11D639FAA27F00DB11DAA1F649F5C
:100F60006627B00DA11D661F829F2227B00DA11D0F
:100F7000621F739FB00DA11D621F839FA00D611D95
:100F8000221F749F3327A00D611D231F849F600DB6
:100F9000211D822F762F6A2F11249F5750409AF0DF
:100FA000F1F088234AF0EE0FFF1FBB1F661F771F6B
:100FB000881F91505040A9F79E3F510580F00C9436
:100FC000F6070C947E075F3FE4F3983ED4F38695D2
:100FD00077956795B795F795E7959F5FC1F7FE2BD6
:100FE000880F911D9695879597F9089597F99F67B2
:100FF00080E870E060E008959FEF80EC08950024A1
:101000000A941616170618060906089500240A946D
:1010100012161306140605060895092E0394000CF3
:1010200011F4882352F0BB0F40F4BF2B11F460FF82
:1010300004C06F5F7F4F8F4F9F4F0895F894FFCF8D
:00000001FF
