:100000000C942A000C9447000C9447000C94470071
:100010000C94E0050C9447000C9447000C944700A6
:100020000C9447000C9447000C9447000C94470034
:100030000C9447000C9447000C9447000C94470024
:100040000C9447000C9447000C9447000C94470014
:100050000C94470011241FBECFE5D8E0DEBFCDBF12
:1000600010E0A0E6B0E0EAE8FCE102C005900D92E5
:10007000AA36B107D9F710E0AAE6B0E001C01D9298
:10008000A037B107E1F70E94F70D0C94430E0C94D2
:100090000000EF92FF920F931F937B018C0120E0F1
:1000A00030E040E05FE40E94490388238CF0C801FF
:1000B000B70120E030E040E05FE40E94C1010E940F
:1000C000A9039B01AC01205030404040504806C07D
:1000D000C801B7010E94A9039B01AC01B901CA0183
:1000E0001F910F91FF90EF900895A0E0B0E0EBE733
:1000F000F0E00C940C0EDC012B01FA019C91923083
:1001000008F439C1EB018881823008F433C194309E
:1001100069F4843009F02FC111969C91119789815F
:10012000981709F428C1A0E6B0E025C1843009F48D
:1001300021C18230A9F4923009F01DC19A01AD01AC
:1001400088E0EA010990AE01E90109929E0181501F
:10015000C1F7E201898111969C918923818308C1AD
:10016000923009F407C112962D903C901397EB0141
:100170008A819B811496AD90BD90CD90DC901797AD
:10018000EC80FD800E811F819101281B390BB90184
:1001900037FF04C066277727621B730B6032710537
:1001A0000CF061C0121613066CF537014801062EDB
:1001B00004C096948794779467940A94D2F721E0C8
:1001C00030E040E050E004C0220F331F441F551FB1
:1001D0006A95D2F721503040404050402E213F21B7
:1001E00040235123211531054105510521F021E01E
:1001F00030E040E050E079018A01E628F72808293C
:1002000019293CC0232BD1F1260E371E350146019A
:10021000062E04C096948794779467940A94D2F734
:1002200021E030E040E050E004C0220F331F441FC3
:10023000551F6A95D2F721503040404050402A2146
:100240003B214C215D21211531054105510521F04E
:1002500021E030E040E050E059016A01A628B728CB
:10026000C828D9280BC0821593052CF01C01AA249C
:10027000BB24650103C0EE24FF24870111969C91E5
:10028000D20111968C91981709F445C0992339F041
:10029000A80197012A193B094C095D0906C0A6016E
:1002A00095012E193F09400B510B57FD08C01182D3
:1002B0003382228224833583468357831DC081E0A5
:1002C00081833382228288279927DC01821B930B4A
:1002D000A40BB50B84839583A683B7830DC0220F2F
:1002E000331F441F551F24833583468357838281E0
:1002F000938101979383828324813581468157813D
:10030000DA01C9010197A109B1098F5F9F4FAF4F72
:10031000BF4328F30BC0918333822282EA0CFB1C7B
:100320000C1D1D1DE482F5820683178383E0808304
:10033000248135814681578157FF1AC0C901AA27F8
:1003400097FDA095BA2F81709070A070B0705695EF
:10035000479537952795822B932BA42BB52B848318
:100360009583A683B7838281938101969383828349
:10037000DF0101C0D201CD01CDB7DEB7E2E10C94BF
:10038000280EA0E2B0E0E7ECF1E00C94180E6983CF
:100390007A838B839C832D833E834F835887E9E048
:1003A000EE2EF12CEC0EFD1ECE010196B7010E943F
:1003B000D2048E010F5E1F4FCE010596B8010E9438
:1003C000D2048A8991E089278A8BC701B801AE01DE
:1003D000475E5F4F0E9475000E94FD03A096E6E015
:1003E0000C94340EA0E2B0E0E8EFF1E00C94180EAB
:1003F00069837A838B839C832D833E834F835887C5
:10040000F9E0EF2EF12CEC0EFD1ECE010196B701A6
:100410000E94D2048E010F5E1F4FCE010596B801D7
:100420000E94D204C701B801AE01475E5F4F0E942F
:1004300075000E94FD03A096E6E00C94340EA0E245
:10044000B0E0E5E2F2E00C940C0E69837A838B83D2
:100450009C832D833E834F835887CE010196BE0136
:10046000675F7F4F0E94D204CE010596BE016F5E8A
:100470007F4F0E94D2049985923088F0898982301A
:10048000C8F0943019F4823051F404C0843029F457
:10049000923081F480E690E0C6C0923049F420E0CA
:1004A0009A858A89981321E02A87CE010996BBC0D4
:1004B000823049F420E09A858A89981321E02A8BBA
:1004C000CE014196B0C02D843E844F8458886D88FB
:1004D0007E888F88988CEE24FF248701AA24BB2471
:1004E000650140E050E060E070E0E0E0F0E0C10174
:1004F00081709070892BE9F0E60CF71C081D191D1E
:100500009A01AB012A0D3B1D4C1D5D1D80E090E062
:10051000A0E0B0E0E614F7040805190520F481E036
:1005200090E0A0E0B0E0BA01A901480F591F6A1F8E
:100530007B1FAA0CBB1CCC1CDD1C97FE08C081E0F5
:1005400090E0A0E0B0E0A82AB92ACA2ADB2A3196B6
:10055000E032F10549F0660C771C881C991C569412
:10056000479437942794C3CFFA85EA892B893C892D
:100570008B859C85280F391F2E5F3F4F17C0CA01FE
:1005800081709070892B61F016950795F794E79428
:1005900080E090E0A0E0B0E8E82AF92A0A2B1B2BC3
:1005A00076956795579547952F5F3F4F77FDE7CF36
:1005B0000CC0440F551F661F771F17FD4160EE0CDE
:1005C000FF1C001F111F21503040403090E05907A0
:1005D00090E0690790E4790760F32B8F3C8FDB0193
:1005E000CA018F779070A070B07080349105A1051A
:1005F000B10561F447FD0AC0E114F10401051105DC
:1006000029F0405C5F4F6F4F7F4F40781A8EFE1786
:1006100011F081E08A8F4D8F5E8F6F8F78A383E01A
:10062000898FCE0149960E94FD03A096E2E10C94C9
:10063000280EA8E1B0E0EFE1F3E00C94180E698316
:100640007A838B839C832D833E834F83588789E0F5
:10065000E82EF12CEC0EFD1ECE010196B7010E9492
:10066000D2048E010F5E1F4FCE010596B8010E9485
:10067000D2048985823040F08989823028F0C70110
:10068000B8010E944A0501C08FEF6896E6E00C941D
:10069000340EA8E1B0E0EFE4F3E00C94180E6983A7
:1006A0007A838B839C832D833E834F83588789E095
:1006B000E82EF12CEC0EFD1ECE010196B7010E9432
:1006C000D2048E010F5E1F4FCE010596B8010E9425
:1006D000D2048985823040F08989823028F0C701B0
:1006E000B8010E944A0501C08FEF6896E6E00C94BD
:1006F000340EA8E1B0E0EFE7F3E00C94180E698344
:100700007A838B839C832D833E834F83588789E034
:10071000E82EF12CEC0EFD1ECE010196B7010E94D1
:10072000D2048E010F5E1F4FCE010596B8010E94C4
:10073000D2048985823040F08989823028F0C7014F
:10074000B8010E944A0501C081E06896E6E00C9479
:10075000340EACE0B0E0EFEAF3E00C941C0E6983D9
:100760007A838B839C83CE010196BE016B5F7F4FA2
:100770000E94D2048D81823061F1823050F1843048
:1007800021F48E81882351F12EC02F81388537FDC9
:1007900020C06E812F3131051CF06623F9F023C093
:1007A0008EE190E0821B930B29853A854B855C8511
:1007B00004C056954795379527958A95D2F76623B5
:1007C000B1F050954095309521953F4F4F4F5F4F79
:1007D0000EC020E030E040E050E009C02FEF3FEFD6
:1007E0004FEF5FE704C020E030E040E050E8B9019F
:1007F000CA012C96E2E00C94380EDF92EF92FF9241
:100800000F931F93FC01E480F58006811781D1804E
:100810008081823048F480E090E0A0E1B0E0E82AF6
:10082000F92A0A2B1B2BA5C0843009F49FC0823003
:1008300021F4EE24FF24870105C0E114F104010531
:10084000110519F4E0E0F0E096C0628173819FEF3A
:10085000623879070CF05BC022E83FEF261B370BAC
:100860002A3131052CF020E030E040E050E02AC091
:10087000B801A701022E04C0769567955795479554
:100880000A94D2F781E090E0A0E0B0E004C0880FC5
:10089000991FAA1FBB1F2A95D2F70197A109B10979
:1008A0008E219F21A023B1230097A105B10521F03E
:1008B00081E090E0A0E0B0E09A01AB01282B392B59
:1008C0004A2B5B2BDA01C9018F779070A070B07052
:1008D00080349105A105B10539F427FF09C0205CDA
:1008E0003F4F4F4F5F4F04C0215C3F4F4F4F5F4F13
:1008F000E0E0F0E02030A0E03A07A0E04A07A0E402
:100900005A0710F0E1E0F0E079018A0127C0603871
:10091000710564F5FB01E158FF4FD801C7018F77DE
:100920009070A070B07080349105A105B10539F4C4
:10093000E7FE0DC080E490E0A0E0B0E004C08FE3EB
:1009400090E0A0E0B0E0E80EF91E0A1F1B1F17FFA1
:1009500005C016950795F794E794319687E01695AC
:100960000795F794E7948A95D1F705C0EE24FF2404
:100970008701EFEFF0E06E2F679566276795902F60
:100980009F77D794DD24D7948E2F8695492F462BB9
:10099000582F5D29B701CA011F910F91FF90EF9069
:1009A000DF900895FC01DB01408151812281622F9B
:1009B0006F7770E0221F2227221F9381892F880FD3
:1009C000822B282F30E0991F9927991F11969C930D
:1009D000119721153105A9F54115510561057105DD
:1009E00011F482E037C082E89FEF13969C938E93B8
:1009F00012979A01AB0167E0220F331F441F551F66
:100A00006A95D1F783E08C930DC0220F331F441FEA
:100A1000551F12968D919C911397019713969C9355
:100A20008E931297203080E0380780E0480780E4FA
:100A3000580758F314962D933D934D935C93179755
:100A400008952F3F310579F4411551056105710570
:100A500019F484E08C93089564FF03C081E08C93C3
:100A600012C01C9210C02F57304013963C932E9307
:100A7000129783E08C9387E0440F551F661F771F02
:100A80008A95D1F7706414964D935D936D937C9322
:100A9000179708951F93DC01FB019C91923008F495
:100AA00047C08081823008F443C0943051F41196DD
:100AB0001C91843099F58181682F70E0611B710968
:100AC0003FC0843021F0923031F48230B9F181811D
:100AD000882389F12DC011961C9111978230F1F075
:100AE00081811817D9F412962D913C911397828128
:100AF00093818217930794F028173907BCF0149656
:100B00008D919D910D90BC91A02D248135814681C0
:100B10005781281739074A075B0718F4112341F05A
:100B20000AC082179307A407B50740F4112319F0F0
:100B300061E070E005C06FEF7FEF02C060E070E041
:100B4000CB011F910895DF93CF93CDB7DEB7E5E4D6
:100B5000F0E08AE88083E4E4F0E01082A9E5B0E008
:100B6000E9E5F0E0808180688C93E3E4F0E08AEFCF
:100B70008083AFE5B0E0EFE5F0E0808180688C93A2
:100B800081E080936E00CF91DF910895DF93CF9342
:100B900000D00F92CDB7DEB789837B836A830E9432
:100BA000A3058A819B8190936B0080936A00898161
:100BB00080936D000F900F900F90CF91DF9108956B
:100BC0001F920F920FB60F9211242F933F934F93C2
:100BD0005F936F937F938F939F93AF93BF93EF93A5
:100BE000FF93DF93CF93CDB7DEB780916C008F5F1B
:100BF00080936C0090916C0080916D00981769F45F
:100C000080916A0090916B00009729F0E0916A0052
:100C1000F0916B00099510926C00CF91DF91FF91DC
:100C2000EF91BF91AF919F918F917F916F915F9164
:100C30004F913F912F910F900FBE0F901F901895DD
:100C4000DF93CF9300D000D00F92CDB7DEB789836A
:100C50006A834B838A81883008F0D5C089818430CB
:100C600008F0D1C08981282F30E03D832C838C810E
:100C70009D818130910509F443C02C813D81223052
:100C800031052CF48C819D81009771F0BCC02C81C2
:100C90003D812230310509F45FC08C819D81833014
:100CA000910509F485C0AFC08B818130A1F4AAE31E
:100CB000B0E0EAE3F0E08081482F8A81282F30E01D
:100CC00081E090E0022E02C0880F991F0A94E2F79B
:100CD000842B8C9398C0AAE3B0E0EAE3F0E0808133
:100CE000482F8A81282F30E081E090E0022E02C058
:100CF000880F991F0A94E2F7809584238C9383C010
:100D00008B818130A1F4A7E3B0E0E7E3F0E08081DC
:100D1000482F8A81282F30E081E090E0022E02C027
:100D2000880F991F0A94E2F7842B8C936CC0A7E379
:100D3000B0E0E7E3F0E08081482F8A81282F30E09F
:100D400081E090E0022E02C0880F991F0A94E2F71A
:100D5000809584238C9357C08B818130A1F4A4E3C8
:100D6000B0E0E4E3F0E08081482F8A81282F30E072
:100D700081E090E0022E02C0880F991F0A94E2F7EA
:100D8000842B8C9340C0A4E3B0E0E4E3F0E08081E6
:100D9000482F8A81282F30E081E090E0022E02C0A7
:100DA000880F991F0A94E2F7809584238C932BC0B7
:100DB0008B818130A1F4A1E3B0E0E1E3F0E0808138
:100DC000482F8A81282F30E081E090E0022E02C077
:100DD000880F991F0A94E2F7842B8C9314C0A1E327
:100DE000B0E0E1E3F0E08081482F8A81282F30E0F5
:100DF00081E090E0022E02C0880F991F0A94E2F76A
:100E0000809584238C930F900F900F900F900F90EC
:100E1000CF91DF910895DF93CF9300D000D00F9250
:100E2000CDB7DEB789836A834B838A81883008F027
:100E3000D5C08981843008F0D1C08981282F30E065
:100E40003D832C838C819D818130910509F443C0C1
:100E50002C813D81223031052CF48C819D810097BD
:100E600071F0BCC02C813D812230310509F45FC096
:100E70008C819D818330910509F485C0AFC08B8141
:100E80008823A9F4ABE3B0E0EBE3F0E08081482FE6
:100E90008A81282F30E081E090E0022E02C0880F86
:100EA000991F0A94E2F7809584238C9397C0ABE353
:100EB000B0E0EBE3F0E08081482F8A81282F30E01A
:100EC00081E090E0022E02C0880F991F0A94E2F799
:100ED000842B8C9383C08B818823A9F4A8E3B0E092
:100EE000E8E3F0E08081482F8A81282F30E081E01C
:100EF00090E0022E02C0880F991F0A94E2F78095B5
:100F000084238C936BC0A8E3B0E0E8E3F0E0808139
:100F1000482F8A81282F30E081E090E0022E02C025
:100F2000880F991F0A94E2F7842B8C9357C08B810A
:100F30008823A9F4A5E3B0E0E5E3F0E08081482F41
:100F40008A81282F30E081E090E0022E02C0880FD5
:100F5000991F0A94E2F7809584238C933FC0A5E300
:100F6000B0E0E5E3F0E08081482F8A81282F30E06F
:100F700081E090E0022E02C0880F991F0A94E2F7E8
:100F8000842B8C932BC08B818823A9F4A2E3B0E03F
:100F9000E2E3F0E08081482F8A81282F30E081E071
:100FA00090E0022E02C0880F991F0A94E2F7809504
:100FB00084238C9313C0A2E3B0E0E2E3F0E08081ED
:100FC000482F8A81282F30E081E090E0022E02C075
:100FD000880F991F0A94E2F7842B8C930F900F903F
:100FE0000F900F900F90CF91DF910895DF93CF93E3
:100FF000CDB7DEB72A970FB6F894DEBF0FBECDBFD0
:1010000089836A838A81883018F48981843010F05A
:1010100019868AC08981282F30E038872F834F8135
:1010200058854130510589F18F819885823091052D
:1010300034F42F8138852115310569F074C04F8152
:10104000588542305105D9F18F81988583309105BB
:1010500009F44FC068C0E9E3F0E08081282F30E058
:101060008A81882F90E0A90102C0559547958A95FD
:10107000E2F7CA0181709070882319F051E05E8315
:1010800001C01E828E8189874FC0E6E3F0E0808137
:10109000282F30E08A81882F90E0A90102C0559561
:1010A00047958A95E2F7CA0181709070882319F0FC
:1010B00051E05D8301C01D828D81898735C0E3E3E6
:1010C000F0E08081282F30E08A81882F90E0A9010C
:1010D00002C0559547958A95E2F7CA0181709070D4
:1010E000882319F051E05C8301C01C828C818987C0
:1010F0001BC0E0E3F0E08081282F30E08A81882F58
:1011000090E0A90102C0559547958A95E2F7CA017A
:1011100081709070882319F051E05B8301C01B82BD
:101120008B81898701C002C099859A878A852A9612
:101130000FB6F894DEBF0FBECDBFCF91DF910895FB
:10114000DF93CF9300D000D0CDB7DEB789836A8319
:101150008981843090F58981282F30E03C832B836E
:101160008B819C8181309105D1F02B813C81223093
:1011700031052CF48B819C81009761F01EC02B817E
:101180003C812230310581F08B819C818330910537
:1011900081F013C0EAE3F0E08A8180830EC0E7E3C8
:1011A000F0E08A81808309C0E4E3F0E08A818083F3
:1011B00004C0E1E3F0E08A8180830F900F900F90EC
:1011C0000F90CF91DF910895DF93CF9300D000D09F
:1011D000CDB7DEB789836A838981843090F58981B0
:1011E000282F30E03C832B838B819C8181309105BB
:1011F000D1F02B813C81223031052CF48B819C81F4
:10120000009761F01EC02B813C812230310581F0B6
:101210008B819C818330910581F013C0EBE3F0E07A
:101220008A8180830EC0E8E3F0E08A81808309C070
:10123000E5E3F0E08A81808304C0E2E3F0E08A81A4
:1012400080830F900F900F900F90CF91DF910895B2
:10125000DF93CF9300D000D00F92CDB7DEB7898354
:101260008981843010F01C8234C08981282F30E0BD
:101270003B832A838A819B8181309105D1F02A8129
:101280003B81223031052CF48A819B81009761F0EB
:101290001FC02A813B812230310581F08A819B81E8
:1012A0008330910581F014C0E9E3F0E090819C83E4
:1012B00010C0E6E3F0E020812C830BC0E3E3F0E014
:1012C00030813C8306C0E0E3F0E080818C8301C084
:1012D00002C09C819D838D810F900F900F900F9085
:1012E0000F90CF91DF910895DF93CF9300D000D07E
:1012F00000D0CDB7DEB789836A838A81883008F051
:101300007BC08981843008F077C08981282F30E044
:101310003D832C838C819D818130910561F12C81ED
:101320003D81223031052CF48C819D81009769F03C
:1013300063C02C813D812230310591F18C819D81EA
:101340008330910509F442C057C0ABE3B0E0EBE352
:10135000F0E08081482F8A81282F30E081E090E002
:10136000022E02C0880F991F0A94E2F784278C93FB
:101370009C919B8342C0A8E3B0E0E8E3F0E0808169
:10138000482F8A81282F30E081E090E002C0880F4A
:10139000991F2A95E2F784278C932C912B832DC0DB
:1013A000A5E3B0E0E5E3F0E08081482F8A81282FB3
:1013B00030E081E090E0022E02C0880F991F0A946D
:1013C000E2F784278C933C913B8317C0A2E3B0E003
:1013D000E2E3F0E08081482F8A81282F30E081E02D
:1013E00090E0022E02C0880F991F0A94E2F784272A
:1013F0008C938C918B8301C002C09B819E838E81D4
:1014000026960FB6F894DEBF0FBECDBFCF91DF9109
:101410000895DF93CF9300D00F92CDB7DEB78983C5
:101420008981282F30E03B832A838A819B81843005
:10143000910509F4D7C02A813B8125303105ECF4B0
:101440008A819B818130910509F460C02A813B81AA
:10145000223031052CF48A819B81009799F199C142
:101460002A813B812230310509F474C08A819B8135
:101470008330910509F492C08CC12A813B812730C9
:10148000310509F41BC18A819B81883091056CF478
:101490002A813B812530310509F4C8C08A819B81AE
:1014A0008630910509F4E6C074C12A813B81283059
:1014B000310509F427C18A819B818930910509F49E
:1014C00045C167C180E061E041E00E940B0780E018
:1014D00062E041E00E940B0780E063E041E00E948F
:1014E0000B0780E064E041E00E940B0780E065E0CC
:1014F00041E00E940B0780E066E041E00E940B079C
:1015000080E067E040E00E940B0743C180E061E0BB
:1015100040E00E940B0780E062E041E00E940B0780
:1015200080E063E041E00E940B0780E064E040E07F
:101530000E940B0780E065E040E00E940B0780E01E
:1015400066E040E00E940B0780E067E040E00E9418
:101550000B071FC180E061E041E00E940B0780E0C3
:1015600062E041E00E940B0780E063E040E00E94FF
:101570000B0780E064E041E00E940B0780E065E03B
:1015800041E00E940B0780E066E040E00E940B070C
:1015900080E067E041E00E940B07FBC080E061E073
:1015A00041E00E940B0780E062E041E00E940B07EF
:1015B00080E063E041E00E940B0780E064E041E0EE
:1015C0000E940B0780E065E040E00E940B0780E08E
:1015D00066E040E00E940B0780E067E041E00E9487
:1015E0000B07D7C080E061E040E00E940B0780E07D
:1015F00062E041E00E940B0780E063E041E00E946E
:101600000B0780E064E040E00E940B0780E065E0AB
:1016100040E00E940B0780E066E041E00E940B077B
:1016200080E067E041E00E940B07B3C080E061E02A
:1016300041E00E940B0780E062E040E00E940B075F
:1016400080E063E041E00E940B0780E064E041E05D
:101650000E940B0780E065E040E00E940B0780E0FD
:1016600066E041E00E940B0780E067E041E00E94F5
:101670000B078FC080E061E041E00E940B0780E033
:1016800062E040E00E940B0780E063E041E00E94DE
:101690000B0780E064E041E00E940B0780E065E01A
:1016A00041E00E940B0780E066E041E00E940B07EA
:1016B00080E067E041E00E940B076BC080E061E0E2
:1016C00041E00E940B0780E062E041E00E940B07CE
:1016D00080E063E041E00E940B0780E064E040E0CE
:1016E0000E940B0780E065E040E00E940B0780E06D
:1016F00066E040E00E940B0780E067E040E00E9467
:101700000B0747C080E061E041E00E940B0780E0EA
:1017100062E041E00E940B0780E063E041E00E944C
:101720000B0780E064E041E00E940B0780E065E089
:1017300041E00E940B0780E066E041E00E940B0759
:1017400080E067E041E00E940B0723C080E061E099
:1017500041E00E940B0780E062E041E00E940B073D
:1017600080E063E041E00E940B0780E064E040E03D
:101770000E940B0780E065E040E00E940B0780E0DC
:1017800066E041E00E940B0780E067E041E00E94D4
:101790000B070F900F900F90CF91DF910895DF937B
:1017A000CF93CDB7DEB780916F00882F90E0817026
:1017B0009070882391F082E066E00E94740982E0D4
:1017C00067E00E947409809168009AE0692F0E9486
:1017D000000E892F0E94090A10C082E066E00E9474
:1017E000740982E067E00E947409809168009AE0C1
:1017F000692F0E94000E0E94090ACF91DF9108957F
:10180000DF93CF930F92CDB7DEB78983898184367A
:1018100018F48981809368000F90CF91DF9108952B
:10182000DF93CF93CDB7DEB780E06FEF0E94A008C3
:1018300082E066E041E00E94200682E067E041E04D
:101840000E94200682E066E041E00E940B0782E0F1
:1018500067E040E00E940B072FEC3BE081E0B9011C
:101860000E94C605CF91DF910895DF93CF93CDB746
:10187000DEB781E064E040E00E94200681E065E0A0
:1018800040E00E94200681E066E040E00E942006E1
:1018900081E067E040E00E94200683E062E040E0F3
:1018A0000E94200683E063E040E00E94200683E07F
:1018B00064E040E00E94200683E065E040E00E9492
:1018C0002006CF91DF910895DF93CF93CDB7DEB798
:1018D00061970FB6F894DEBF0FBECDBF188AAEC0B9
:1018E0008889982F9C5F81E0692F41E00E94200643
:1018F0008889982F9C5F81E0692F40E00E940B0748
:101900001F861CC08F85982F9E5F83E0692F0E94E1
:10191000F607882381F48889882F90E0880F991F23
:10192000880F991F982F8F85890F8F5F0E942B0D2D
:10193000898B898987C08F858F5F8F878F8584305A
:1019400008F38889982F9C5F81E0692F40E00E940E
:10195000200680E090E0A0EAB0E48B879C87AD870A
:10196000BE876B857C858D859E8520E030E04AE7CB
:1019700053E40E941F02DC01CB018F839887A98763
:10198000BA876F81788589859A8520E030E040E8C4
:101990005FE30E94790388232CF481E090E09E832A
:1019A0008D833FC06F81788589859A8520E03FEFE0
:1019B0004FE757E40E94190318164CF56B857C8598
:1019C0008D859E8520E030E040E251E40E941F02B8
:1019D000DC01CB01BC01CD010E944900DC01CB013F
:1019E0009E838D830FC089E190E09C838B838B81E4
:1019F0009C810197F1F79C838B838D819E81019758
:101A00009E838D838D819E81009769F714C06F81BD
:101A1000788589859A850E944900DC01CB019E83E7
:101A20008D838D819E819A83898389819A81019793
:101A3000F1F79A83898388898F5F888B88898430BE
:101A400008F44ECF61960FB6F894DEBF0FBECDBF3F
:101A5000CF91DF910895DF93CF9300D000D0CDB721
:101A6000DEB78A8319828A81282F30E03C832B835A
:101A70008B819C818830910509F470C02B813C8159
:101A8000293031055CF58B819C818430910509F406
:101A900059C02B813C81253031059CF48B819C8180
:101AA0008230910509F448C02B813C8123303105F7
:101AB0000CF045C08B819C818130910509F439C0BF
:101AC00067C02B813C812630310509F441C08B81F0
:101AD0009C81873091050CF03EC037C02B813C8142
:101AE0002C30310509F446C08B819C818D309105E5
:101AF0005CF42B813C812A303105B1F18B819C81D2
:101B00008B309105A4F52DC02B813C812E30310501
:101B1000B9F18B819C818E3091057CF12B813C81C8
:101B20002F30310579F18B819C818031910569F1EC
:101B30002FC087E089832EC088E089832BC089E08D
:101B4000898328C085E2898325C084E0898322C0F7
:101B500085E089831FC086E089831CC08AE289836F
:101B600019C081E0898316C082E0898313C083E0B5
:101B7000898310C08DE289830DC08DE089830AC0FE
:101B8000198208C08DE3898305C08BE2898302C076
:101B90008FEF898389810F900F900F900F90CF91D5
:101BA000DF910895DF93CF93CDB7DEB70E94100C7D
:101BB0000E94350CCF91DF910895DF93CF93CDB77D
:101BC000DEB70E94640C0E94000CCF91DF91089553
:101BD000DF93CF93CDB7DEB7A8E3B0E0E8E3F0E062
:101BE000908184E089278C93CF91DF910895DF93D2
:101BF000CF93CDB7DEB70E94D20D0E94DD0DFDCF91
:101C0000991B79E004C0991F961708F0961B881F4E
:101C10007A95C9F7809508952F923F924F925F92DF
:101C20006F927F928F929F92AF92BF92CF92DF92EC
:101C3000EF92FF920F931F93CF93DF93CDB7DEB751
:101C4000CA1BDB0B0FB6F894DEBF0FBECDBF0994E5
:101C50002A88398848885F846E847D848C849B843C
:101C6000AA84B984C884DF80EE80FD800C811B814A
:101C7000AA81B981CE0FD11D0FB6F894DEBF0FBE79
:0A1C8000CDBFED010895F894FFCFE9
:0A1C8A000000000000000000370019
:00000001FF
